:1000000018F09FE518F09FE518F09FE518F09FE5C0
:1000100018F09FE5606FA0B814F09FE514F09FE51D
:10002000400000001403000014030000140300004B
:100030001403000014030000140300001403000064
:1000400000000FE11F00C0E3120080E300F021E197
:1000500034109FE507D0C1E31F00C0E3110080E327
:1000600000F021E124109FE507D0C1E31F00C0E3A9
:100070001F0080E300F021E114109FE507D0C1E3E9
:100080000000A0E10000A0E10B0000EA70110040B8
:10009000801100402011004000C09FE51CFF2FE1AF
:1000A000ED00000000C09FE51CFF2FE101020000F1
:1000B00000C09FE51CFF2FE1010100000100A0E34B
:1000C000F4FFFFEB000050E30000000A0000A0E195
:1000D0000000A0E10000A0E30000A0E1F0FFFFEBC2
:1000E000F2FFFFEB080000EBFDFFFFEA0120704785
:1000F00008B4024B9C4608BC6047C0462C01000077
:1001000080B5FFF7F5FF09BC1847000000502DE946
:100110000000A0E12620A0E3802B82E30210A0E1F2
:100120001800A0E3563412EFFBFFFFEA0070B0E1C5
:0C0130000700B0E1F4FFFFEBFDFFFFEA69
:1002000080B500F00AF8344800F041F8C02000F052
:100210004CF8324800F03BF8FEE780B5FF2130484B
:100220000160C02189022F48016000202E4908602A
:100230002E49086000F043F83C2000F036F80F200B
:1002400000F033F809BC184710B500F038F8274C17
:100250002168802080020843206000F030F8216887
:1002600023480840206000F02AF810BC08BC18475A
:1002700080B51E4B1968802252020A431A6000069C
:10028000000E19490860FFF7DFFF09BC184738B5B1
:100290000400002503E0605DFFF7EAFF6D1C605D70
:1002A0000028F8D131BC08BC184780B500220F499E
:1002B0000A600D490860FFF7C7FF09BC184700B581
:1002C00000200100020001E0521C401C0949884244
:1002D000FADB08BC18470000F80200000803000021
:1002E000088002E0188002E0008002E0108002E056
:1002F000FFFFFDFF1F4E00002068656C6C6F2077CC
:100300006F726C6420000000204C55434B59202133
:0C03100021210000FEFFFFEA0EF0B0E12A
:0400000500000040B7
:00000001FF
